:020000040800F2
:1000000090140020A9010008750500086D0500087E
:1000100071050008A7020008590A00080100000045
:100020008C0D00089E0D0008000000000709000864
:10003000AB02000800000000B1050008F509000847
:10004000C3010008C3010008C3010008C301000880
:10005000C3010008C3010008C3010008C301000870
:10006000C3010008C3010008C3010008C301000860
:10007000C3010008C3010008C3010008C301000850
:10008000C3010008C3010008C3010008C301000840
:10009000C3010008C3010008C3010008C301000830
:1000A000C3010008C3010008C3010008C301000820
:1000B000C3010008C3010008C3010008C301000810
:1000C000C3010008C3010008C3010008C301000800
:1000D000C3010008C3010008C3010008C3010008F0
:1000E000C3010008C3010008C301000800F002F8C2
:1000F00000F03AF80AA090E8000C82448344AAF188
:100100000107DA4501D100F02FF8AFF2090EBAE885
:100110000F0013F0010F18BFFB1A43F0010318473B
:10012000980C0000B80C0000103A24BF78C878C1C1
:10013000FAD8520724BF30C830C144BF04680C60ED
:10014000704700000023002400250026103A28BF35
:1001500078C1FBD8520728BF30C148BF0B60704739
:100160001FB51FBD10B510BD00F066F81146FFF7B2
:10017000F7FF00F0B9FC00F084F803B4FFF7F2FFDA
:1001800003BC00F089F80000EFF30980704780F3AA
:1001900009887047EFF30880704780F3088870473C
:1001A00040BA7047C0BA70470948804709480047BD
:1001B000FEE7FEE7FEE7FEE7FEE7FEE7FEE7FEE717
:1001C000FEE7FEE704480549034A054B7047000077
:1001D000F9090008ED00000890100020901400209C
:1001E000901000204FF0000200B51346944696464A
:1001F000203922BFA0E80C50A0E80C50B1F120013A
:10020000BFF4F7AF090728BFA0E80C5048BF0CC0E7
:100210005DF804EB890028BF40F8042B08BF704745
:1002200048BF20F8022B11F0804F18BF00F8012BB7
:100230007047704770477047754600F029F8AE4622
:1002400005006946534620F00700854618B020B5E2
:10025000FFF7B8FFBDE820404FF000064FF0000761
:100260004FF000084FF0000B21F00701AC46ACE85E
:10027000C009ACE8C009ACE8C009ACE8C0098D46CB
:1002800070470446AFF300802046FFF776FF00007A
:10029000004870472C10002001491820ABBEFEE733
:1002A00026000200704700F071F900F06FF90000BD
:1002B00030B5044604254FF4302000F06FF80546B1
:1002C000042D17D10C48006940F002000A4908616A
:1002D00008464461006940F0400008614FF4302056
:1002E00000F05CF805460448006941F6FD710840DD
:1002F00001490861284630BD0020024004200B4916
:10030000C96801F0010109B101200EE00749C9687F
:1003100001F0040109B1022007E00449C96801F0B5
:10032000100109B1032000E00420704700200240C2
:100330000348006940F080000149086170470000EF
:100340000020024070B504460D460426F00200F07D
:1003500025F80646042E11D10948006940F0010035
:10036000074908612580F00200F018F806460448A5
:10037000006941F6FE71084001490861304670BDD0
:100380000020024002480349486003484860704723
:100390002301674500200240AB89EFCD00B502463E
:1003A0000423FFF7ABFF034603E0FFF7A7FF034675
:1003B000521E012B01D1002AF7D102B9052318469C
:1003C00000BD2DE9F0410246002500260020002353
:1003D0000024002791F803C00CF00F0591F803C02A
:1003E0000CF0100CBCF1000F03D091F802C04CEAE5
:1003F000050591F800C0BCF1000F31D01468002051
:100400002BE04FF0010C0CFA00F3B1F800C00CEA3D
:1004100003069E4220D183004FF00F0C0CFA03F725
:10042000BC4305FA03FC4CEA040491F803C0BCF198
:10043000280F06D14FF0010C0CFA00FCC2F814C0D2
:100440000AE091F803C0BCF1480F05D14FF0010C50
:100450000CFA00FCC2F810C0401C0828D1D314606C
:10046000B1F800C0BCF1FF0F34DD546800202EE06D
:1004700000F1080C4FF0010808FA0CF3B1F800C0C5
:100480000CEA03069E4221D183004FF00F0C0CFAB8
:1004900003F7BC4305FA03FC4CEA040491F803C0DB
:1004A000BCF1280F05D100F1080C08FA0CF8C2F8CD
:1004B000148091F803C0BCF1480F07D100F1080C7B
:1004C0004FF0010808FA0CF8C2F81080401C082808
:1004D000CED35460BDE8F081F0B50A460023002475
:1004E0000021002500F00046B6F1004F02D11D4E5C
:1004F000F16901E01B4E7168C0F3034583B200F45B
:100500004016B6F5401F08D121F07061154E76688F
:1005100026F07066134F7E6012E000F48016B6F588
:10052000801F06D1032606FA05F4A14341F070614D
:1005300006E0460D360103FA06F6B14341F070615C
:1005400022B1460D360103FA06F6314300F00046AB
:10055000B6F1004F02D1034EF16101E0014E71602E
:10056000F0BD0000000001400161704700F00EF88E
:1005700000F00CF800F00AF802490143024A116049
:10058000704700000000FA050CED00E00648006826
:1005900000F4E06005490843001D03490860BFF30B
:1005A000408F00BFFEE700000CED00E00000FA0500
:1005B0007047000029B1064A92690243044B9A61D0
:1005C00004E0034A92698243014B9A61704700003C
:1005D0000010024008B501210820FFF7EBFF0121C0
:1005E0000846FFF7E7FF01211248FFF775FFB0202B
:1005F000ADF8000010208DF8030003208DF80200F4
:1006000069460D48FFF7DDFE4020ADF800004820A8
:100610008DF8030003208DF8020069460648FFF7B5
:10062000D0FEF0210448FFF79FFF00F02FF80349A8
:10063000088008BD00023000000C014014000020BA
:10064000F0B506460C46174600200F490860032007
:1006500000F004FAC4F3074000F000FAC4F30720E6
:1006600000F0FCF9E0B200F0F9F9002505E0FF2008
:1006700000F0F4F97055681C85B2BD42F7DB01202B
:1006800001490860F0BD00009C81214210B50024A2
:1006900000200E490860902000F0E0F9002000F0F2
:1006A000DDF9002000F0DAF9002000F0D7F9FF2092
:1006B00000F0D4F944EA0024FF2000F0CFF904430D
:1006C00001200349C1F89C01204610BD9C812142B4
:1006D0000080214230B503460C461546002207E053
:1006E000184600F008F824F812009B1C501C82B237
:1006F000AA42F5DB30BD0146088870472DE9F84F66
:1007000007468A461646B7F1006F07D3724800883D
:100710000004800900F10060B84201D8BDE8F88FFC
:10072000FFF730FEA7F1006B6B48008880B2FF280E
:1007300002D84FF4806001E04FF40060BBFBF0F89A
:100740006548008880B2FF2802D84FF4806001E03D
:100750004FF40060BBFBF0F100FB11B04FEA500911
:100760005D49098889B2FF2902D84FF4806101E010
:100770004FF40061084601EBD071C9EB61018CB206
:10078000A64200DC3446A1E05349098889B2FF291A
:1007900002D84FF4806101E04FF40061009101EB59
:1007A000D171C1F34F024C49098889B2FF2902D89F
:1007B0004FF4806101E04FF4006101FB08F101F1A9
:1007C00000604649FFF786FF00250BE009EB0500B6
:1007D000424931F810004FF6FF71884200D003E023
:1007E000681C85B2A542F1DB00BFA5423DDA3A495B
:1007F000098889B2FF2902D84FF4806101E04FF4E3
:10080000006101FB08F101F10060FFF751FD0025D7
:1008100008E03AF8150005EB0901304A22F811000A
:10082000681C85B2A542F4DB2B49098889B2FF29EF
:1008300002D84FF4806101E04FF40061009101EBB8
:10084000D171C1F34F022449098889B2FF2902D826
:100850004FF4806101E04FF4006101FB08F101F108
:1008600000601E4900F03CF804E02246514638463C
:1008700000F036F8A64200D129E008F101084FF057
:1008800000090AEB440A2744301B86B21249098842
:1008900089B2FF2902D84FF4806101E04FF4006172
:1008A00001EBD171B6EB610F0FDD0B49098889B2FD
:1008B000FF2902D84FF4806101E04FF4006108463F
:1008C00001EBD071C1F34F0400E034465CE700BF98
:1008D000FFF72EFD00BF21E7E0F7FF1F2C000020EF
:1008E0002DE9F04105460E461746002407E036F88C
:1008F00014102846FFF726FDAD1C601C84B2BC42D4
:10090000F5DBBDE8F081FFF741FE10B500F002F81D
:1009100010BD00000CB50020019000903348006825
:1009200040F480303149086000BF3048006800F46E
:10093000003000900198401C0190009818B901986F
:10094000B0F5A06FF1D12948006800F4003010B173
:100950000120009001E0002000900098012843D180
:100960002348006840F010002149086008460068EC
:1009700020F0030008600846006840F002000860AC
:100980001A48406819494860084640684860084667
:10099000406840F4806048600846406820F47C105D
:1009A00048600846406840F4E8104860084600681F
:1009B00040F08070086000BF0C48006800F00070D4
:1009C0000028F9D00948406820F003000749486032
:1009D0000846406840F00200486000BF0348406895
:1009E00000F00C000828F9D10CBD000000100240F6
:1009F000002002407047000010B51348006840F026
:100A000001001149086008464068104908400E4935
:100A10004860084600680E4908400B4908600846CF
:100A2000006820F4802008600846406820F4FE003A
:100A300048604FF41F008860FFF767FF4FF00060C9
:100A40000449086010BD0000001002400000FFF8DB
:100A5000FFFFF6FE08ED00E0FFF798FD10B5014638
:100A60000022002000BF1BE000230F4C236001F098
:100A700080031BB10123241F236003E000230A4CE1
:100A8000241F23604B06190E0123074C23604306E5
:100A9000180E064BD3F818310343D8B2531CDAB200
:100AA000082AE1DB10BD0000948121420080214230
:100AB00010B50A4800680A490840B0F1005F0BD140
:100AC0000648001D00680749086004490868FFF7E8
:100AD00064FB04480068804710BD0000002800083F
:100AE0000000FE2F040000202DE9F0418AB02D48BF
:100AF000006840F4E0202B4908604FF4A060FFF745
:100B00003BFD00F053F8FFF765FD4FF00050006823
:100B1000254988423BD1242101A8FFF763FB242209
:100B2000002101A8FFF78CFD0198401C40B34FF451
:100B3000006000F011F90646029FDDF804804FF4D2
:100B40000064039D19E0A2B241463046FFF778FDEC
:100B5000A044C4F34F0231463846FFF7CFFD274487
:100B6000B5F5006F04D94FF40064A5F5006504E005
:100B700015B12C46002500E000E0E4E700BF00BF0F
:100B800000204FF000510860FFF792FF05E00020C1
:100B90004FF000510860FFF78BFF00200AB0BDE85E
:100BA000F081000024ED00E0040000F000B53049C1
:100BB000098889B2FF2902D84FF4205101E04FF48F
:100BC00014414901222291FBF2F0C11700EBD161DF
:100BD000491121F00301274A1160202026490860AD
:100BE0002348008880B2FF2802D84FF4205001E04B
:100BF0004FF414404001222190FBF1F01F4908609E
:100C0000AFF257001E4908601E484860184909881D
:100C100089B2FF2902D84FF4205101E04FF414416A
:100C20004901222291FBF2F0C11700EBD161491179
:100C300021F00301144A02EB4101114A916012486C
:100C40001146C860002008740A4909684A000C4926
:100C5000C868002100F090F80949886807490A68C7
:100C6000002100F089F801200549087400BD00004A
:100C7000E0F7FF1F080000200C00002010000020FB
:100C800018000020250D0008002800202DE9F04163
:100C900006460024A0462048007C10B91E4908687A
:100CA00080471EB94FF0FF30BDE8F0811B48006857
:100CB000B6FBF0F085B219480068B6FBF0F100FB16
:100CC000116008B1681C85B215480068441E1DE01B
:100CD0001148C06830F8140020B908F101001FFA6B
:100CE00080F801E04FF00008A8450ED1002705E08C
:100CF0000948C068E11920F811507F1CAF42F7D3B2
:100D00000649096804FB01F0CEE7641E002CDFDA17
:100D10004FF0FF30C8E70000180000200C00002052
:100D2000080000200022002106E00948C06830F8D1
:100D3000110000B1521C491C064800688142F4D3DE
:100D400064205043034B1B68B0FBF3F0C0B2704704
:100D5000180000200800002070B505462846FFF75F
:100D600095FF0446601C08B9002070BD01488068EA
:100D70002044FAE71800002030B5034601E003F8EC
:100D8000011B1400A2F10102F9D130BD49415020EC
:100D9000425920464C4153482056312E30004D6177
:100DA000722020372032303139202D2D2031363A33
:100DB00032303A3538000000D80D00080400002019
:100DC0001400000028010008EC0D000818000020A5
:100DD000781400004401000800000000000000003A
:0C0DE000000000000000000016EF000002
:04000005080000ED02
:00000001FF
